{
  "transactions": [
    {
      "hash": "0x02c1a25ebbd0fe5ab47f8d0f5bb37933df774d2752c2ace215af1d6bdd67e992",
      "transactionType": "CALL",
      "contractName": "LinkToken",
      "contractAddress": "0x779877a7b0d9e8603169ddbd7836e478b4624789",
      "function": "transferAndCall(address,uint256,bytes)",
      "arguments": [
        "0x9DdfaCa8183c41ad55329BdeeD9F6A8d53168B1B",
        "3000000000000000000",
        "0x065ee9e459b8e3fb12de0e5bcd666d0f85f4eb990d01b14634497e6a7cccef2a"
      ],
      "transaction": {
        "from": "0xfdb4b2de5ec09de265e63fb4dd499d9b93763ed5",
        "to": "0x779877a7b0d9e8603169ddbd7836e478b4624789",
        "gas": "0x1c1ff",
        "value": "0x0",
        "input": "0x4000aea00000000000000000000000009ddfaca8183c41ad55329bdeed9f6a8d53168b1b00000000000000000000000000000000000000000000000029a2241af62c000000000000000000000000000000000000000000000000000000000000000000600000000000000000000000000000000000000000000000000000000000000020065ee9e459b8e3fb12de0e5bcd666d0f85f4eb990d01b14634497e6a7cccef2a",
        "nonce": "0x22",
        "chainId": "0xaa36a7"
      },
      "additionalContracts": [],
      "isFixedGasLimit": false
    }
  ],
  "receipts": [
    {
      "status": "0x1",
      "cumulativeGasUsed": "0x18a3ea6",
      "logs": [
        {
          "address": "0x779877a7b0d9e8603169ddbd7836e478b4624789",
          "topics": [
            "0xddf252ad1be2c89b69c2b068fc378daa952ba7f163c4a11628f55a4df523b3ef",
            "0x000000000000000000000000fdb4b2de5ec09de265e63fb4dd499d9b93763ed5",
            "0x0000000000000000000000009ddfaca8183c41ad55329bdeed9f6a8d53168b1b"
          ],
          "data": "0x00000000000000000000000000000000000000000000000029a2241af62c0000",
          "blockHash": "0xf5a02fde1875809cc78246b7cfbe915a5eba7dd24c7fbfe0c9c543616fc9a45f",
          "blockNumber": "0x67e03f",
          "transactionHash": "0x02c1a25ebbd0fe5ab47f8d0f5bb37933df774d2752c2ace215af1d6bdd67e992",
          "transactionIndex": "0x80",
          "logIndex": "0xd4",
          "removed": false
        },
        {
          "address": "0x779877a7b0d9e8603169ddbd7836e478b4624789",
          "topics": [
            "0xe19260aff97b920c7df27010903aeb9c8d2be5d310a2c67824cf3f15396e4c16",
            "0x000000000000000000000000fdb4b2de5ec09de265e63fb4dd499d9b93763ed5",
            "0x0000000000000000000000009ddfaca8183c41ad55329bdeed9f6a8d53168b1b"
          ],
          "data": "0x00000000000000000000000000000000000000000000000029a2241af62c000000000000000000000000000000000000000000000000000000000000000000400000000000000000000000000000000000000000000000000000000000000020065ee9e459b8e3fb12de0e5bcd666d0f85f4eb990d01b14634497e6a7cccef2a",
          "blockHash": "0xf5a02fde1875809cc78246b7cfbe915a5eba7dd24c7fbfe0c9c543616fc9a45f",
          "blockNumber": "0x67e03f",
          "transactionHash": "0x02c1a25ebbd0fe5ab47f8d0f5bb37933df774d2752c2ace215af1d6bdd67e992",
          "transactionIndex": "0x80",
          "logIndex": "0xd5",
          "removed": false
        },
        {
          "address": "0x9ddfaca8183c41ad55329bdeed9f6a8d53168b1b",
          "topics": [
            "0x1ced9348ff549fceab2ac57cd3a9de38edaaab274b725ee82c23e8fc8c4eec7a",
            "0x065ee9e459b8e3fb12de0e5bcd666d0f85f4eb990d01b14634497e6a7cccef2a"
          ],
          "data": "0x000000000000000000000000000000000000000000000000000000000000000000000000000000000000000000000000000000000000000029a2241af62c0000",
          "blockHash": "0xf5a02fde1875809cc78246b7cfbe915a5eba7dd24c7fbfe0c9c543616fc9a45f",
          "blockNumber": "0x67e03f",
          "transactionHash": "0x02c1a25ebbd0fe5ab47f8d0f5bb37933df774d2752c2ace215af1d6bdd67e992",
          "transactionIndex": "0x80",
          "logIndex": "0xd6",
          "removed": false
        }
      ],
      "logsBloom": "0x00000004000000000000000000000000000000000020000000000000030000000000000000000000000000000000000000000000000000000000000000000000000000000000000000000008000000000000000000000000000020000020000008000000000000000000000000000000000000000000000000200010000044000000010000000000000000010000800000000020000000000000000000000000000000000000000080000000010000000000000000000000000004000000000000000002000000000000000000000000000000000000000100000000000000000010000000000000800080000000000000000000000000000000000000000000",
      "type": "0x2",
      "transactionHash": "0x02c1a25ebbd0fe5ab47f8d0f5bb37933df774d2752c2ace215af1d6bdd67e992",
      "transactionIndex": "0x80",
      "blockHash": "0xf5a02fde1875809cc78246b7cfbe915a5eba7dd24c7fbfe0c9c543616fc9a45f",
      "blockNumber": "0x67e03f",
      "gasUsed": "0x133b1",
      "effectiveGasPrice": "0x24cea386ce",
      "from": "0xfdb4b2de5ec09de265e63fb4dd499d9b93763ed5",
      "to": "0x779877a7b0d9e8603169ddbd7836e478b4624789",
      "contractAddress": null
    }
  ],
  "libraries": [],
  "pending": [],
  "returns": {},
  "timestamp": 1727968792,
  "chain": 11155111,
  "commit": "7c5363e"
}